{
  "contractName": "Land",
  "abi": [
    {
      "inputs": [
        {
          "internalType": "string",
          "name": "_name",
          "type": "string"
        },
        {
          "internalType": "string",
          "name": "_symbol",
          "type": "string"
        },
        {
          "internalType": "uint256",
          "name": "_cost",
          "type": "uint256"
        }
      ],
      "stateMutability": "nonpayable",
      "type": "constructor"
    },
    {
      "anonymous": false,
      "inputs": [
        {
          "indexed": true,
          "internalType": "address",
          "name": "owner",
          "type": "address"
        },
        {
          "indexed": true,
          "internalType": "address",
          "name": "approved",
          "type": "address"
        },
        {
          "indexed": true,
          "internalType": "uint256",
          "name": "tokenId",
          "type": "uint256"
        }
      ],
      "name": "Approval",
      "type": "event"
    },
    {
      "anonymous": false,
      "inputs": [
        {
          "indexed": true,
          "internalType": "address",
          "name": "owner",
          "type": "address"
        },
        {
          "indexed": true,
          "internalType": "address",
          "name": "operator",
          "type": "address"
        },
        {
          "indexed": false,
          "internalType": "bool",
          "name": "approved",
          "type": "bool"
        }
      ],
      "name": "ApprovalForAll",
      "type": "event"
    },
    {
      "anonymous": false,
      "inputs": [
        {
          "indexed": true,
          "internalType": "address",
          "name": "from",
          "type": "address"
        },
        {
          "indexed": true,
          "internalType": "address",
          "name": "to",
          "type": "address"
        },
        {
          "indexed": true,
          "internalType": "uint256",
          "name": "tokenId",
          "type": "uint256"
        }
      ],
      "name": "Transfer",
      "type": "event"
    },
    {
      "inputs": [
        {
          "internalType": "address",
          "name": "to",
          "type": "address"
        },
        {
          "internalType": "uint256",
          "name": "tokenId",
          "type": "uint256"
        }
      ],
      "name": "approve",
      "outputs": [],
      "stateMutability": "nonpayable",
      "type": "function"
    },
    {
      "inputs": [
        {
          "internalType": "address",
          "name": "owner",
          "type": "address"
        }
      ],
      "name": "balanceOf",
      "outputs": [
        {
          "internalType": "uint256",
          "name": "",
          "type": "uint256"
        }
      ],
      "stateMutability": "view",
      "type": "function",
      "constant": true
    },
    {
      "inputs": [
        {
          "internalType": "uint256",
          "name": "",
          "type": "uint256"
        }
      ],
      "name": "buildings",
      "outputs": [
        {
          "internalType": "string",
          "name": "name",
          "type": "string"
        },
        {
          "internalType": "address",
          "name": "owner",
          "type": "address"
        },
        {
          "internalType": "int256",
          "name": "posX",
          "type": "int256"
        },
        {
          "internalType": "int256",
          "name": "posY",
          "type": "int256"
        },
        {
          "internalType": "int256",
          "name": "posZ",
          "type": "int256"
        },
        {
          "internalType": "uint256",
          "name": "sizeX",
          "type": "uint256"
        },
        {
          "internalType": "uint256",
          "name": "sizeY",
          "type": "uint256"
        },
        {
          "internalType": "uint256",
          "name": "sizeZ",
          "type": "uint256"
        }
      ],
      "stateMutability": "view",
      "type": "function",
      "constant": true
    },
    {
      "inputs": [],
      "name": "cost",
      "outputs": [
        {
          "internalType": "uint256",
          "name": "",
          "type": "uint256"
        }
      ],
      "stateMutability": "view",
      "type": "function",
      "constant": true
    },
    {
      "inputs": [
        {
          "internalType": "uint256",
          "name": "tokenId",
          "type": "uint256"
        }
      ],
      "name": "getApproved",
      "outputs": [
        {
          "internalType": "address",
          "name": "",
          "type": "address"
        }
      ],
      "stateMutability": "view",
      "type": "function",
      "constant": true
    },
    {
      "inputs": [
        {
          "internalType": "address",
          "name": "owner",
          "type": "address"
        },
        {
          "internalType": "address",
          "name": "operator",
          "type": "address"
        }
      ],
      "name": "isApprovedForAll",
      "outputs": [
        {
          "internalType": "bool",
          "name": "",
          "type": "bool"
        }
      ],
      "stateMutability": "view",
      "type": "function",
      "constant": true
    },
    {
      "inputs": [],
      "name": "maxSupply",
      "outputs": [
        {
          "internalType": "uint256",
          "name": "",
          "type": "uint256"
        }
      ],
      "stateMutability": "view",
      "type": "function",
      "constant": true
    },
    {
      "inputs": [],
      "name": "name",
      "outputs": [
        {
          "internalType": "string",
          "name": "",
          "type": "string"
        }
      ],
      "stateMutability": "view",
      "type": "function",
      "constant": true
    },
    {
      "inputs": [
        {
          "internalType": "uint256",
          "name": "tokenId",
          "type": "uint256"
        }
      ],
      "name": "ownerOf",
      "outputs": [
        {
          "internalType": "address",
          "name": "",
          "type": "address"
        }
      ],
      "stateMutability": "view",
      "type": "function",
      "constant": true
    },
    {
      "inputs": [
        {
          "internalType": "address",
          "name": "operator",
          "type": "address"
        },
        {
          "internalType": "bool",
          "name": "approved",
          "type": "bool"
        }
      ],
      "name": "setApprovalForAll",
      "outputs": [],
      "stateMutability": "nonpayable",
      "type": "function"
    },
    {
      "inputs": [
        {
          "internalType": "bytes4",
          "name": "interfaceId",
          "type": "bytes4"
        }
      ],
      "name": "supportsInterface",
      "outputs": [
        {
          "internalType": "bool",
          "name": "",
          "type": "bool"
        }
      ],
      "stateMutability": "view",
      "type": "function",
      "constant": true
    },
    {
      "inputs": [],
      "name": "symbol",
      "outputs": [
        {
          "internalType": "string",
          "name": "",
          "type": "string"
        }
      ],
      "stateMutability": "view",
      "type": "function",
      "constant": true
    },
    {
      "inputs": [
        {
          "internalType": "uint256",
          "name": "tokenId",
          "type": "uint256"
        }
      ],
      "name": "tokenURI",
      "outputs": [
        {
          "internalType": "string",
          "name": "",
          "type": "string"
        }
      ],
      "stateMutability": "view",
      "type": "function",
      "constant": true
    },
    {
      "inputs": [],
      "name": "totalSupply",
      "outputs": [
        {
          "internalType": "uint256",
          "name": "",
          "type": "uint256"
        }
      ],
      "stateMutability": "view",
      "type": "function",
      "constant": true
    },
    {
      "inputs": [
        {
          "internalType": "uint256",
          "name": "_id",
          "type": "uint256"
        }
      ],
      "name": "mint",
      "outputs": [],
      "stateMutability": "payable",
      "type": "function",
      "payable": true
    },
    {
      "inputs": [
        {
          "internalType": "address",
          "name": "from",
          "type": "address"
        },
        {
          "internalType": "address",
          "name": "to",
          "type": "address"
        },
        {
          "internalType": "uint256",
          "name": "tokenId",
          "type": "uint256"
        }
      ],
      "name": "transferFrom",
      "outputs": [],
      "stateMutability": "nonpayable",
      "type": "function"
    },
    {
      "inputs": [
        {
          "internalType": "address",
          "name": "from",
          "type": "address"
        },
        {
          "internalType": "address",
          "name": "to",
          "type": "address"
        },
        {
          "internalType": "uint256",
          "name": "tokenId",
          "type": "uint256"
        }
      ],
      "name": "safeTransferFrom",
      "outputs": [],
      "stateMutability": "nonpayable",
      "type": "function"
    },
    {
      "inputs": [
        {
          "internalType": "address",
          "name": "from",
          "type": "address"
        },
        {
          "internalType": "address",
          "name": "to",
          "type": "address"
        },
        {
          "internalType": "uint256",
          "name": "tokenId",
          "type": "uint256"
        },
        {
          "internalType": "bytes",
          "name": "_data",
          "type": "bytes"
        }
      ],
      "name": "safeTransferFrom",
      "outputs": [],
      "stateMutability": "nonpayable",
      "type": "function"
    },
    {
      "inputs": [],
      "name": "getBuildings",
      "outputs": [
        {
          "components": [
            {
              "internalType": "string",
              "name": "name",
              "type": "string"
            },
            {
              "internalType": "address",
              "name": "owner",
              "type": "address"
            },
            {
              "internalType": "int256",
              "name": "posX",
              "type": "int256"
            },
            {
              "internalType": "int256",
              "name": "posY",
              "type": "int256"
            },
            {
              "internalType": "int256",
              "name": "posZ",
              "type": "int256"
            },
            {
              "internalType": "uint256",
              "name": "sizeX",
              "type": "uint256"
            },
            {
              "internalType": "uint256",
              "name": "sizeY",
              "type": "uint256"
            },
            {
              "internalType": "uint256",
              "name": "sizeZ",
              "type": "uint256"
            }
          ],
          "internalType": "struct Land.Building[]",
          "name": "",
          "type": "tuple[]"
        }
      ],
      "stateMutability": "view",
      "type": "function",
      "constant": true
    },
    {
      "inputs": [
        {
          "internalType": "uint256",
          "name": "_id",
          "type": "uint256"
        }
      ],
      "name": "getBuilding",
      "outputs": [
        {
          "components": [
            {
              "internalType": "string",
              "name": "name",
              "type": "string"
            },
            {
              "internalType": "address",
              "name": "owner",
              "type": "address"
            },
            {
              "internalType": "int256",
              "name": "posX",
              "type": "int256"
            },
            {
              "internalType": "int256",
              "name": "posY",
              "type": "int256"
            },
            {
              "internalType": "int256",
              "name": "posZ",
              "type": "int256"
            },
            {
              "internalType": "uint256",
              "name": "sizeX",
              "type": "uint256"
            },
            {
              "internalType": "uint256",
              "name": "sizeY",
              "type": "uint256"
            },
            {
              "internalType": "uint256",
              "name": "sizeZ",
              "type": "uint256"
            }
          ],
          "internalType": "struct Land.Building",
          "name": "",
          "type": "tuple"
        }
      ],
      "stateMutability": "view",
      "type": "function",
      "constant": true
    }
  ],
  "bytecode": "0x6080604052670de0b6b3a7640000600655600560075560006008553480156200002757600080fd5b50604051620040673803806200406783398181016040528101906200004d919062000a20565b828281600090805190602001906200006792919062000798565b5080600190805190602001906200008092919062000798565b5050508060068190555060096040518061010001604052806040518060400160405280600981526020017f436974792048616c6c00000000000000000000000000000000000000000000008152508152602001600073ffffffffffffffffffffffffffffffffffffffff168152602001600081526020016000815260200160008152602001600a8152602001600a8152602001600a815250908060018154018082558091505060019003906000526020600020906008020160009091909190915060008201518160000190805190602001906200015f92919062000798565b5060208201518160010160006101000a81548173ffffffffffffffffffffffffffffffffffffffff021916908373ffffffffffffffffffffffffffffffffffffffff16021790555060408201518160020155606082015181600301556080820151816004015560a0820151816005015560c0820151816006015560e08201518160070155505060096040518061010001604052806040518060400160405280600781526020017f5374616469756d000000000000000000000000000000000000000000000000008152508152602001600073ffffffffffffffffffffffffffffffffffffffff16815260200160008152602001600a815260200160008152602001600a815260200160058152602001600381525090806001815401808255809150506001900390600052602060002090600802016000909190919091506000820151816000019080519060200190620002ba92919062000798565b5060208201518160010160006101000a81548173ffffffffffffffffffffffffffffffffffffffff021916908373ffffffffffffffffffffffffffffffffffffffff16021790555060408201518160020155606082015181600301556080820151816004015560a0820151816005015560c0820151816006015560e08201518160070155505060096040518061010001604052806040518060400160405280600a81526020017f556e6976657273697479000000000000000000000000000000000000000000008152508152602001600073ffffffffffffffffffffffffffffffffffffffff168152602001600081526020017ffffffffffffffffffffffffffffffffffffffffffffffffffffffffffffffff6815260200160008152602001600a8152602001600581526020016003815250908060018154018082558091505060019003906000526020600020906008020160009091909190915060008201518160000190805190602001906200043492919062000798565b5060208201518160010160006101000a81548173ffffffffffffffffffffffffffffffffffffffff021916908373ffffffffffffffffffffffffffffffffffffffff16021790555060408201518160020155606082015181600301556080820151816004015560a0820151816005015560c0820151816006015560e08201518160070155505060096040518061010001604052806040518060400160405280600e81526020017f53686f7070696e6720506c617a610000000000000000000000000000000000008152508152602001600073ffffffffffffffffffffffffffffffffffffffff168152602001600a8152602001600081526020016000815260200160058152602001601981526020016005815250908060018154018082558091505060019003906000526020600020906008020160009091909190915060008201518160000190805190602001906200058f92919062000798565b5060208201518160010160006101000a81548173ffffffffffffffffffffffffffffffffffffffff021916908373ffffffffffffffffffffffffffffffffffffffff16021790555060408201518160020155606082015181600301556080820151816004015560a0820151816005015560c0820151816006015560e08201518160070155505060096040518061010001604052806040518060400160405280601081526020017f53686f7070696e6720506c617a612032000000000000000000000000000000008152508152602001600073ffffffffffffffffffffffffffffffffffffffff1681526020017ffffffffffffffffffffffffffffffffffffffffffffffffffffffffffffffff68152602001600081526020016000815260200160058152602001601981526020016005815250908060018154018082558091505060019003906000526020600020906008020160009091909190915060008201518160000190805190602001906200070992919062000798565b5060208201518160010160006101000a81548173ffffffffffffffffffffffffffffffffffffffff021916908373ffffffffffffffffffffffffffffffffffffffff16021790555060408201518160020155606082015181600301556080820151816004015560a0820151816005015560c0820151816006015560e08201518160070155505050505062000b1f565b828054620007a69062000ae9565b90600052602060002090601f016020900481019282620007ca576000855562000816565b82601f10620007e557805160ff191683800117855562000816565b8280016001018555821562000816579182015b8281111562000815578251825591602001919060010190620007f8565b5b50905062000825919062000829565b5090565b5b80821115620008445760008160009055506001016200082a565b5090565b6000604051905090565b600080fd5b600080fd5b600080fd5b600080fd5b6000601f19601f8301169050919050565b7f4e487b7100000000000000000000000000000000000000000000000000000000600052604160045260246000fd5b620008b18262000866565b810181811067ffffffffffffffff82111715620008d357620008d262000877565b5b80604052505050565b6000620008e862000848565b9050620008f68282620008a6565b919050565b600067ffffffffffffffff82111562000919576200091862000877565b5b620009248262000866565b9050602081019050919050565b60005b838110156200095157808201518184015260208101905062000934565b8381111562000961576000848401525b50505050565b60006200097e6200097884620008fb565b620008dc565b9050828152602081018484840111156200099d576200099c62000861565b5b620009aa84828562000931565b509392505050565b600082601f830112620009ca57620009c96200085c565b5b8151620009dc84826020860162000967565b91505092915050565b6000819050919050565b620009fa81620009e5565b811462000a0657600080fd5b50565b60008151905062000a1a81620009ef565b92915050565b60008060006060848603121562000a3c5762000a3b62000852565b5b600084015167ffffffffffffffff81111562000a5d5762000a5c62000857565b5b62000a6b86828701620009b2565b935050602084015167ffffffffffffffff81111562000a8f5762000a8e62000857565b5b62000a9d86828701620009b2565b925050604062000ab08682870162000a09565b9150509250925092565b7f4e487b7100000000000000000000000000000000000000000000000000000000600052602260045260246000fd5b6000600282049050600182168062000b0257607f821691505b6020821081141562000b195762000b1862000aba565b5b50919050565b6135388062000b2f6000396000f3fe60806040526004361061011f5760003560e01c806370a08231116100a0578063b88d4fde11610064578063b88d4fde14610405578063c87b56dd1461042e578063d5abeb011461046b578063d9cf6a2614610496578063e985e9c5146104c15761011f565b806370a082311461031b57806395d89b41146103585780639dfd8b0214610383578063a0712d68146103c0578063a22cb465146103dc5761011f565b806318160ddd116100e757806318160ddd1461021d57806323b872dd1461024857806342842e0e146102715780634c96a0621461029a5780636352211e146102de5761011f565b806301ffc9a71461012457806306fdde0314610161578063081812fc1461018c578063095ea7b3146101c957806313faede6146101f2575b600080fd5b34801561013057600080fd5b5061014b60048036038101906101469190611ffc565b6104fe565b6040516101589190612044565b60405180910390f35b34801561016d57600080fd5b506101766105e0565b60405161018391906120f8565b60405180910390f35b34801561019857600080fd5b506101b360048036038101906101ae9190612150565b610672565b6040516101c091906121be565b60405180910390f35b3480156101d557600080fd5b506101f060048036038101906101eb9190612205565b6106f7565b005b3480156101fe57600080fd5b5061020761080f565b6040516102149190612254565b60405180910390f35b34801561022957600080fd5b50610232610815565b60405161023f9190612254565b60405180910390f35b34801561025457600080fd5b5061026f600480360381019061026a919061226f565b61081b565b005b34801561027d57600080fd5b506102986004803603810190610293919061226f565b6108eb565b005b3480156102a657600080fd5b506102c160048036038101906102bc9190612150565b61090b565b6040516102d59897969594939291906122db565b60405180910390f35b3480156102ea57600080fd5b5061030560048036038101906103009190612150565b610a0b565b60405161031291906121be565b60405180910390f35b34801561032757600080fd5b50610342600480360381019061033d9190612360565b610abd565b60405161034f9190612254565b60405180910390f35b34801561036457600080fd5b5061036d610b75565b60405161037a91906120f8565b60405180910390f35b34801561038f57600080fd5b506103aa60048036038101906103a59190612150565b610c07565b6040516103b791906124b4565b60405180910390f35b6103da60048036038101906103d59190612150565b610d74565b005b3480156103e857600080fd5b5061040360048036038101906103fe9190612502565b610f63565b005b34801561041157600080fd5b5061042c60048036038101906104279190612677565b610f79565b005b34801561043a57600080fd5b5061045560048036038101906104509190612150565b61104b565b60405161046291906120f8565b60405180910390f35b34801561047757600080fd5b506104806110f2565b60405161048d9190612254565b60405180910390f35b3480156104a257600080fd5b506104ab6110f8565b6040516104b8919061286c565b60405180910390f35b3480156104cd57600080fd5b506104e860048036038101906104e3919061288e565b61127c565b6040516104f59190612044565b60405180910390f35b60007f80ac58cd000000000000000000000000000000000000000000000000000000007bffffffffffffffffffffffffffffffffffffffffffffffffffffffff1916827bffffffffffffffffffffffffffffffffffffffffffffffffffffffff191614806105c957507f5b5e139f000000000000000000000000000000000000000000000000000000007bffffffffffffffffffffffffffffffffffffffffffffffffffffffff1916827bffffffffffffffffffffffffffffffffffffffffffffffffffffffff1916145b806105d957506105d882611310565b5b9050919050565b6060600080546105ef906128fd565b80601f016020809104026020016040519081016040528092919081815260200182805461061b906128fd565b80156106685780601f1061063d57610100808354040283529160200191610668565b820191906000526020600020905b81548152906001019060200180831161064b57829003601f168201915b5050505050905090565b600061067d8261137a565b6106bc576040517f08c379a00000000000000000000000000000000000000000000000000000000081526004016106b3906129a1565b60405180910390fd5b6004600083815260200190815260200160002060009054906101000a900473ffffffffffffffffffffffffffffffffffffffff169050919050565b600061070282610a0b565b90508073ffffffffffffffffffffffffffffffffffffffff168373ffffffffffffffffffffffffffffffffffffffff161415610773576040517f08c379a000000000000000000000000000000000000000000000000000000000815260040161076a90612a33565b60405180910390fd5b8073ffffffffffffffffffffffffffffffffffffffff166107926113e6565b73ffffffffffffffffffffffffffffffffffffffff1614806107c157506107c0816107bb6113e6565b61127c565b5b610800576040517f08c379a00000000000000000000000000000000000000000000000000000000081526004016107f790612ac5565b60405180910390fd5b61080a83836113ee565b505050565b60065481565b60085481565b61082c6108266113e6565b826114a7565b61086b576040517f08c379a000000000000000000000000000000000000000000000000000000000815260040161086290612b57565b60405180910390fd5b81600960018361087b9190612ba6565b8154811061088c5761088b612bda565b5b906000526020600020906008020160010160006101000a81548173ffffffffffffffffffffffffffffffffffffffff021916908373ffffffffffffffffffffffffffffffffffffffff1602179055506108e6838383611585565b505050565b61090683838360405180602001604052806000815250610f79565b505050565b6009818154811061091b57600080fd5b906000526020600020906008020160009150905080600001805461093e906128fd565b80601f016020809104026020016040519081016040528092919081815260200182805461096a906128fd565b80156109b75780601f1061098c576101008083540402835291602001916109b7565b820191906000526020600020905b81548152906001019060200180831161099a57829003601f168201915b5050505050908060010160009054906101000a900473ffffffffffffffffffffffffffffffffffffffff16908060020154908060030154908060040154908060050154908060060154908060070154905088565b6000806002600084815260200190815260200160002060009054906101000a900473ffffffffffffffffffffffffffffffffffffffff169050600073ffffffffffffffffffffffffffffffffffffffff168173ffffffffffffffffffffffffffffffffffffffff161415610ab4576040517f08c379a0000000000000000000000000000000000000000000000000000000008152600401610aab90612c7b565b60405180910390fd5b80915050919050565b60008073ffffffffffffffffffffffffffffffffffffffff168273ffffffffffffffffffffffffffffffffffffffff161415610b2e576040517f08c379a0000000000000000000000000000000000000000000000000000000008152600401610b2590612d0d565b60405180910390fd5b600360008373ffffffffffffffffffffffffffffffffffffffff1673ffffffffffffffffffffffffffffffffffffffff168152602001908152602001600020549050919050565b606060018054610b84906128fd565b80601f0160208091040260200160405190810160405280929190818152602001828054610bb0906128fd565b8015610bfd5780601f10610bd257610100808354040283529160200191610bfd565b820191906000526020600020905b815481529060010190602001808311610be057829003601f168201915b5050505050905090565b610c0f611f35565b6009600183610c1e9190612ba6565b81548110610c2f57610c2e612bda565b5b906000526020600020906008020160405180610100016040529081600082018054610c59906128fd565b80601f0160208091040260200160405190810160405280929190818152602001828054610c85906128fd565b8015610cd25780601f10610ca757610100808354040283529160200191610cd2565b820191906000526020600020905b815481529060010190602001808311610cb557829003601f168201915b505050505081526020016001820160009054906101000a900473ffffffffffffffffffffffffffffffffffffffff1673ffffffffffffffffffffffffffffffffffffffff1673ffffffffffffffffffffffffffffffffffffffff16815260200160028201548152602001600382015481526020016004820154815260200160058201548152602001600682015481526020016007820154815250509050919050565b60006008549050600754811115610dc0576040517f08c379a0000000000000000000000000000000000000000000000000000000008152600401610db790612d79565b60405180910390fd5b600073ffffffffffffffffffffffffffffffffffffffff166009600184610de79190612ba6565b81548110610df857610df7612bda565b5b906000526020600020906008020160010160009054906101000a900473ffffffffffffffffffffffffffffffffffffffff1673ffffffffffffffffffffffffffffffffffffffff1614610e80576040517f08c379a0000000000000000000000000000000000000000000000000000000008152600401610e7790612de5565b60405180910390fd5b670de0b6b3a7640000341015610ecb576040517f08c379a0000000000000000000000000000000000000000000000000000000008152600401610ec290612e51565b60405180910390fd5b336009600184610edb9190612ba6565b81548110610eec57610eeb612bda565b5b906000526020600020906008020160010160006101000a81548173ffffffffffffffffffffffffffffffffffffffff021916908373ffffffffffffffffffffffffffffffffffffffff160217905550600160086000828254610f4e9190612e71565b92505081905550610f5f33836117ec565b5050565b610f75610f6e6113e6565b838361180a565b5050565b610f8a610f846113e6565b836114a7565b610fc9576040517f08c379a0000000000000000000000000000000000000000000000000000000008152600401610fc090612b57565b60405180910390fd5b826009600184610fd99190612ba6565b81548110610fea57610fe9612bda565b5b906000526020600020906008020160010160006101000a81548173ffffffffffffffffffffffffffffffffffffffff021916908373ffffffffffffffffffffffffffffffffffffffff16021790555061104584848484611977565b50505050565b60606110568261137a565b611095576040517f08c379a000000000000000000000000000000000000000000000000000000000815260040161108c90612f39565b60405180910390fd5b600061109f6119d3565b905060008151116110bf57604051806020016040528060008152506110ea565b806110c9846119ea565b6040516020016110da929190612f95565b6040516020818303038152906040525b915050919050565b60075481565b60606009805480602002602001604051908101604052809291908181526020016000905b82821015611273578382906000526020600020906008020160405180610100016040529081600082018054611150906128fd565b80601f016020809104026020016040519081016040528092919081815260200182805461117c906128fd565b80156111c95780601f1061119e576101008083540402835291602001916111c9565b820191906000526020600020905b8154815290600101906020018083116111ac57829003601f168201915b505050505081526020016001820160009054906101000a900473ffffffffffffffffffffffffffffffffffffffff1673ffffffffffffffffffffffffffffffffffffffff1673ffffffffffffffffffffffffffffffffffffffff16815260200160028201548152602001600382015481526020016004820154815260200160058201548152602001600682015481526020016007820154815250508152602001906001019061111c565b50505050905090565b6000600560008473ffffffffffffffffffffffffffffffffffffffff1673ffffffffffffffffffffffffffffffffffffffff16815260200190815260200160002060008373ffffffffffffffffffffffffffffffffffffffff1673ffffffffffffffffffffffffffffffffffffffff16815260200190815260200160002060009054906101000a900460ff16905092915050565b60007f01ffc9a7000000000000000000000000000000000000000000000000000000007bffffffffffffffffffffffffffffffffffffffffffffffffffffffff1916827bffffffffffffffffffffffffffffffffffffffffffffffffffffffff1916149050919050565b60008073ffffffffffffffffffffffffffffffffffffffff166002600084815260200190815260200160002060009054906101000a900473ffffffffffffffffffffffffffffffffffffffff1673ffffffffffffffffffffffffffffffffffffffff1614159050919050565b600033905090565b816004600083815260200190815260200160002060006101000a81548173ffffffffffffffffffffffffffffffffffffffff021916908373ffffffffffffffffffffffffffffffffffffffff160217905550808273ffffffffffffffffffffffffffffffffffffffff1661146183610a0b565b73ffffffffffffffffffffffffffffffffffffffff167f8c5be1e5ebec7d5bd14f71427d1e84f3dd0314c0f7b2291e5b200ac8c7c3b92560405160405180910390a45050565b60006114b28261137a565b6114f1576040517f08c379a00000000000000000000000000000000000000000000000000000000081526004016114e89061302b565b60405180910390fd5b60006114fc83610a0b565b90508073ffffffffffffffffffffffffffffffffffffffff168473ffffffffffffffffffffffffffffffffffffffff16148061156b57508373ffffffffffffffffffffffffffffffffffffffff1661155384610672565b73ffffffffffffffffffffffffffffffffffffffff16145b8061157c575061157b818561127c565b5b91505092915050565b8273ffffffffffffffffffffffffffffffffffffffff166115a582610a0b565b73ffffffffffffffffffffffffffffffffffffffff16146115fb576040517f08c379a00000000000000000000000000000000000000000000000000000000081526004016115f2906130bd565b60405180910390fd5b600073ffffffffffffffffffffffffffffffffffffffff168273ffffffffffffffffffffffffffffffffffffffff16141561166b576040517f08c379a00000000000000000000000000000000000000000000000000000000081526004016116629061314f565b60405180910390fd5b611676838383611b4b565b6116816000826113ee565b6001600360008573ffffffffffffffffffffffffffffffffffffffff1673ffffffffffffffffffffffffffffffffffffffff16815260200190815260200160002060008282546116d19190612ba6565b925050819055506001600360008473ffffffffffffffffffffffffffffffffffffffff1673ffffffffffffffffffffffffffffffffffffffff16815260200190815260200160002060008282546117289190612e71565b92505081905550816002600083815260200190815260200160002060006101000a81548173ffffffffffffffffffffffffffffffffffffffff021916908373ffffffffffffffffffffffffffffffffffffffff160217905550808273ffffffffffffffffffffffffffffffffffffffff168473ffffffffffffffffffffffffffffffffffffffff167fddf252ad1be2c89b69c2b068fc378daa952ba7f163c4a11628f55a4df523b3ef60405160405180910390a46117e7838383611b50565b505050565b611806828260405180602001604052806000815250611b55565b5050565b8173ffffffffffffffffffffffffffffffffffffffff168373ffffffffffffffffffffffffffffffffffffffff161415611879576040517f08c379a0000000000000000000000000000000000000000000000000000000008152600401611870906131bb565b60405180910390fd5b80600560008573ffffffffffffffffffffffffffffffffffffffff1673ffffffffffffffffffffffffffffffffffffffff16815260200190815260200160002060008473ffffffffffffffffffffffffffffffffffffffff1673ffffffffffffffffffffffffffffffffffffffff16815260200190815260200160002060006101000a81548160ff0219169083151502179055508173ffffffffffffffffffffffffffffffffffffffff168373ffffffffffffffffffffffffffffffffffffffff167f17307eab39ab6107e8899845ad3d59bd9653f200f220920489ca2b5937696c318360405161196a9190612044565b60405180910390a3505050565b611982848484611585565b61198e84848484611bb0565b6119cd576040517f08c379a00000000000000000000000000000000000000000000000000000000081526004016119c49061324d565b60405180910390fd5b50505050565b606060405180602001604052806000815250905090565b60606000821415611a32576040518060400160405280600181526020017f30000000000000000000000000000000000000000000000000000000000000008152509050611b46565b600082905060005b60008214611a64578080611a4d9061326d565b915050600a82611a5d91906132e5565b9150611a3a565b60008167ffffffffffffffff811115611a8057611a7f61254c565b5b6040519080825280601f01601f191660200182016040528015611ab25781602001600182028036833780820191505090505b5090505b60008514611b3f57600182611acb9190612ba6565b9150600a85611ada9190613316565b6030611ae69190612e71565b60f81b818381518110611afc57611afb612bda565b5b60200101907effffffffffffffffffffffffffffffffffffffffffffffffffffffffffffff1916908160001a905350600a85611b3891906132e5565b9450611ab6565b8093505050505b919050565b505050565b505050565b611b5f8383611d38565b611b6c6000848484611bb0565b611bab576040517f08c379a0000000000000000000000000000000000000000000000000000000008152600401611ba29061324d565b60405180910390fd5b505050565b6000611bd18473ffffffffffffffffffffffffffffffffffffffff16611f12565b15611d2b578373ffffffffffffffffffffffffffffffffffffffff1663150b7a02611bfa6113e6565b8786866040518563ffffffff1660e01b8152600401611c1c949392919061339c565b6020604051808303816000875af1925050508015611c5857506040513d601f19601f82011682018060405250810190611c5591906133fd565b60015b611cdb573d8060008114611c88576040519150601f19603f3d011682016040523d82523d6000602084013e611c8d565b606091505b50600081511415611cd3576040517f08c379a0000000000000000000000000000000000000000000000000000000008152600401611cca9061324d565b60405180910390fd5b805181602001fd5b63150b7a0260e01b7bffffffffffffffffffffffffffffffffffffffffffffffffffffffff1916817bffffffffffffffffffffffffffffffffffffffffffffffffffffffff191614915050611d30565b600190505b949350505050565b600073ffffffffffffffffffffffffffffffffffffffff168273ffffffffffffffffffffffffffffffffffffffff161415611da8576040517f08c379a0000000000000000000000000000000000000000000000000000000008152600401611d9f90613476565b60405180910390fd5b611db18161137a565b15611df1576040517f08c379a0000000000000000000000000000000000000000000000000000000008152600401611de8906134e2565b60405180910390fd5b611dfd60008383611b4b565b6001600360008473ffffffffffffffffffffffffffffffffffffffff1673ffffffffffffffffffffffffffffffffffffffff1681526020019081526020016000206000828254611e4d9190612e71565b92505081905550816002600083815260200190815260200160002060006101000a81548173ffffffffffffffffffffffffffffffffffffffff021916908373ffffffffffffffffffffffffffffffffffffffff160217905550808273ffffffffffffffffffffffffffffffffffffffff16600073ffffffffffffffffffffffffffffffffffffffff167fddf252ad1be2c89b69c2b068fc378daa952ba7f163c4a11628f55a4df523b3ef60405160405180910390a4611f0e60008383611b50565b5050565b6000808273ffffffffffffffffffffffffffffffffffffffff163b119050919050565b60405180610100016040528060608152602001600073ffffffffffffffffffffffffffffffffffffffff1681526020016000815260200160008152602001600081526020016000815260200160008152602001600081525090565b6000604051905090565b600080fd5b600080fd5b60007fffffffff0000000000000000000000000000000000000000000000000000000082169050919050565b611fd981611fa4565b8114611fe457600080fd5b50565b600081359050611ff681611fd0565b92915050565b60006020828403121561201257612011611f9a565b5b600061202084828501611fe7565b91505092915050565b60008115159050919050565b61203e81612029565b82525050565b60006020820190506120596000830184612035565b92915050565b600081519050919050565b600082825260208201905092915050565b60005b8381101561209957808201518184015260208101905061207e565b838111156120a8576000848401525b50505050565b6000601f19601f8301169050919050565b60006120ca8261205f565b6120d4818561206a565b93506120e481856020860161207b565b6120ed816120ae565b840191505092915050565b6000602082019050818103600083015261211281846120bf565b905092915050565b6000819050919050565b61212d8161211a565b811461213857600080fd5b50565b60008135905061214a81612124565b92915050565b60006020828403121561216657612165611f9a565b5b60006121748482850161213b565b91505092915050565b600073ffffffffffffffffffffffffffffffffffffffff82169050919050565b60006121a88261217d565b9050919050565b6121b88161219d565b82525050565b60006020820190506121d360008301846121af565b92915050565b6121e28161219d565b81146121ed57600080fd5b50565b6000813590506121ff816121d9565b92915050565b6000806040838503121561221c5761221b611f9a565b5b600061222a858286016121f0565b925050602061223b8582860161213b565b9150509250929050565b61224e8161211a565b82525050565b60006020820190506122696000830184612245565b92915050565b60008060006060848603121561228857612287611f9a565b5b6000612296868287016121f0565b93505060206122a7868287016121f0565b92505060406122b88682870161213b565b9150509250925092565b6000819050919050565b6122d5816122c2565b82525050565b60006101008201905081810360008301526122f6818b6120bf565b9050612305602083018a6121af565b61231260408301896122cc565b61231f60608301886122cc565b61232c60808301876122cc565b61233960a0830186612245565b61234660c0830185612245565b61235360e0830184612245565b9998505050505050505050565b60006020828403121561237657612375611f9a565b5b6000612384848285016121f0565b91505092915050565b600082825260208201905092915050565b60006123a98261205f565b6123b3818561238d565b93506123c381856020860161207b565b6123cc816120ae565b840191505092915050565b6123e08161219d565b82525050565b6123ef816122c2565b82525050565b6123fe8161211a565b82525050565b6000610100830160008301518482036000860152612422828261239e565b915050602083015161243760208601826123d7565b50604083015161244a60408601826123e6565b50606083015161245d60608601826123e6565b50608083015161247060808601826123e6565b5060a083015161248360a08601826123f5565b5060c083015161249660c08601826123f5565b5060e08301516124a960e08601826123f5565b508091505092915050565b600060208201905081810360008301526124ce8184612404565b905092915050565b6124df81612029565b81146124ea57600080fd5b50565b6000813590506124fc816124d6565b92915050565b6000806040838503121561251957612518611f9a565b5b6000612527858286016121f0565b9250506020612538858286016124ed565b9150509250929050565b600080fd5b600080fd5b7f4e487b7100000000000000000000000000000000000000000000000000000000600052604160045260246000fd5b612584826120ae565b810181811067ffffffffffffffff821117156125a3576125a261254c565b5b80604052505050565b60006125b6611f90565b90506125c2828261257b565b919050565b600067ffffffffffffffff8211156125e2576125e161254c565b5b6125eb826120ae565b9050602081019050919050565b82818337600083830152505050565b600061261a612615846125c7565b6125ac565b90508281526020810184848401111561263657612635612547565b5b6126418482856125f8565b509392505050565b600082601f83011261265e5761265d612542565b5b813561266e848260208601612607565b91505092915050565b6000806000806080858703121561269157612690611f9a565b5b600061269f878288016121f0565b94505060206126b0878288016121f0565b93505060406126c18782880161213b565b925050606085013567ffffffffffffffff8111156126e2576126e1611f9f565b5b6126ee87828801612649565b91505092959194509250565b600081519050919050565b600082825260208201905092915050565b6000819050602082019050919050565b6000610100830160008301518482036000860152612744828261239e565b915050602083015161275960208601826123d7565b50604083015161276c60408601826123e6565b50606083015161277f60608601826123e6565b50608083015161279260808601826123e6565b5060a08301516127a560a08601826123f5565b5060c08301516127b860c08601826123f5565b5060e08301516127cb60e08601826123f5565b508091505092915050565b60006127e28383612726565b905092915050565b6000602082019050919050565b6000612802826126fa565b61280c8185612705565b93508360208202850161281e85612716565b8060005b8581101561285a578484038952815161283b85826127d6565b9450612846836127ea565b925060208a01995050600181019050612822565b50829750879550505050505092915050565b6000602082019050818103600083015261288681846127f7565b905092915050565b600080604083850312156128a5576128a4611f9a565b5b60006128b3858286016121f0565b92505060206128c4858286016121f0565b9150509250929050565b7f4e487b7100000000000000000000000000000000000000000000000000000000600052602260045260246000fd5b6000600282049050600182168061291557607f821691505b60208210811415612929576129286128ce565b5b50919050565b7f4552433732313a20617070726f76656420717565727920666f72206e6f6e657860008201527f697374656e7420746f6b656e0000000000000000000000000000000000000000602082015250565b600061298b602c8361206a565b91506129968261292f565b604082019050919050565b600060208201905081810360008301526129ba8161297e565b9050919050565b7f4552433732313a20617070726f76616c20746f2063757272656e74206f776e6560008201527f7200000000000000000000000000000000000000000000000000000000000000602082015250565b6000612a1d60218361206a565b9150612a28826129c1565b604082019050919050565b60006020820190508181036000830152612a4c81612a10565b9050919050565b7f4552433732313a20617070726f76652063616c6c6572206973206e6f74206f7760008201527f6e6572206e6f7220617070726f76656420666f7220616c6c0000000000000000602082015250565b6000612aaf60388361206a565b9150612aba82612a53565b604082019050919050565b60006020820190508181036000830152612ade81612aa2565b9050919050565b7f4552433732313a207472616e736665722063616c6c6572206973206e6f74206f60008201527f776e6572206e6f7220617070726f766564000000000000000000000000000000602082015250565b6000612b4160318361206a565b9150612b4c82612ae5565b604082019050919050565b60006020820190508181036000830152612b7081612b34565b9050919050565b7f4e487b7100000000000000000000000000000000000000000000000000000000600052601160045260246000fd5b6000612bb18261211a565b9150612bbc8361211a565b925082821015612bcf57612bce612b77565b5b828203905092915050565b7f4e487b7100000000000000000000000000000000000000000000000000000000600052603260045260246000fd5b7f4552433732313a206f776e657220717565727920666f72206e6f6e657869737460008201527f656e7420746f6b656e0000000000000000000000000000000000000000000000602082015250565b6000612c6560298361206a565b9150612c7082612c09565b604082019050919050565b60006020820190508181036000830152612c9481612c58565b9050919050565b7f4552433732313a2062616c616e636520717565727920666f7220746865207a6560008201527f726f206164647265737300000000000000000000000000000000000000000000602082015250565b6000612cf7602a8361206a565b9150612d0282612c9b565b604082019050919050565b60006020820190508181036000830152612d2681612cea565b9050919050565b7f416c72656164792072656163686564206d617820737570706c79000000000000600082015250565b6000612d63601a8361206a565b9150612d6e82612d2d565b602082019050919050565b60006020820190508181036000830152612d9281612d56565b9050919050565b7f4275696c64696e6720616c726561647920686173206f776e6572000000000000600082015250565b6000612dcf601a8361206a565b9150612dda82612d99565b602082019050919050565b60006020820190508181036000830152612dfe81612dc2565b9050919050565b7f4c616e6420636f73747320312065746865720000000000000000000000000000600082015250565b6000612e3b60128361206a565b9150612e4682612e05565b602082019050919050565b60006020820190508181036000830152612e6a81612e2e565b9050919050565b6000612e7c8261211a565b9150612e878361211a565b9250827fffffffffffffffffffffffffffffffffffffffffffffffffffffffffffffffff03821115612ebc57612ebb612b77565b5b828201905092915050565b7f4552433732314d657461646174613a2055524920717565727920666f72206e6f60008201527f6e6578697374656e7420746f6b656e0000000000000000000000000000000000602082015250565b6000612f23602f8361206a565b9150612f2e82612ec7565b604082019050919050565b60006020820190508181036000830152612f5281612f16565b9050919050565b600081905092915050565b6000612f6f8261205f565b612f798185612f59565b9350612f8981856020860161207b565b80840191505092915050565b6000612fa18285612f64565b9150612fad8284612f64565b91508190509392505050565b7f4552433732313a206f70657261746f7220717565727920666f72206e6f6e657860008201527f697374656e7420746f6b656e0000000000000000000000000000000000000000602082015250565b6000613015602c8361206a565b915061302082612fb9565b604082019050919050565b6000602082019050818103600083015261304481613008565b9050919050565b7f4552433732313a207472616e736665722066726f6d20696e636f72726563742060008201527f6f776e6572000000000000000000000000000000000000000000000000000000602082015250565b60006130a760258361206a565b91506130b28261304b565b604082019050919050565b600060208201905081810360008301526130d68161309a565b9050919050565b7f4552433732313a207472616e7366657220746f20746865207a65726f2061646460008201527f7265737300000000000000000000000000000000000000000000000000000000602082015250565b600061313960248361206a565b9150613144826130dd565b604082019050919050565b600060208201905081810360008301526131688161312c565b9050919050565b7f4552433732313a20617070726f766520746f2063616c6c657200000000000000600082015250565b60006131a560198361206a565b91506131b08261316f565b602082019050919050565b600060208201905081810360008301526131d481613198565b9050919050565b7f4552433732313a207472616e7366657220746f206e6f6e20455243373231526560008201527f63656976657220696d706c656d656e7465720000000000000000000000000000602082015250565b600061323760328361206a565b9150613242826131db565b604082019050919050565b600060208201905081810360008301526132668161322a565b9050919050565b60006132788261211a565b91507fffffffffffffffffffffffffffffffffffffffffffffffffffffffffffffffff8214156132ab576132aa612b77565b5b600182019050919050565b7f4e487b7100000000000000000000000000000000000000000000000000000000600052601260045260246000fd5b60006132f08261211a565b91506132fb8361211a565b92508261330b5761330a6132b6565b5b828204905092915050565b60006133218261211a565b915061332c8361211a565b92508261333c5761333b6132b6565b5b828206905092915050565b600081519050919050565b600082825260208201905092915050565b600061336e82613347565b6133788185613352565b935061338881856020860161207b565b613391816120ae565b840191505092915050565b60006080820190506133b160008301876121af565b6133be60208301866121af565b6133cb6040830185612245565b81810360608301526133dd8184613363565b905095945050505050565b6000815190506133f781611fd0565b92915050565b60006020828403121561341357613412611f9a565b5b6000613421848285016133e8565b91505092915050565b7f4552433732313a206d696e7420746f20746865207a65726f2061646472657373600082015250565b600061346060208361206a565b915061346b8261342a565b602082019050919050565b6000602082019050818103600083015261348f81613453565b9050919050565b7f4552433732313a20746f6b656e20616c7265616479206d696e74656400000000600082015250565b60006134cc601c8361206a565b91506134d782613496565b602082019050919050565b600060208201905081810360008301526134fb816134bf565b905091905056fea26469706673582212205f9030494aebc2a31d7fb89da4c60f758599f4707faae85bfe4ff555aebfef7364736f6c634300080b0033",
  "immutableReferences": {},
  "source": "// SPDX-License-Identifier: MIT\npragma solidity ^0.8.0;\n\nimport \"@openzeppelin/contracts/token/ERC721/ERC721.sol\";\n\ncontract Land is ERC721 {\n\n    uint256 public cost = 1 ether;\n    uint public maxSupply = 5;\n    uint public totalSupply = 0;\n\n    struct Building {\n        string name;\n        address owner;\n        int256 posX;\n        int256 posY;\n        int256 posZ;\n        uint256 sizeX;\n        uint256 sizeY;\n        uint256 sizeZ;\n    }\n\n    Building[] public buildings;\n\n    constructor (string memory _name, string memory _symbol, uint256 _cost) ERC721(_name, _symbol) {\n        cost = _cost;\n        buildings.push(\n            Building('City Hall', address(0x0), 0, 0, 0, 10, 10, 10)\n        );\n        buildings.push(\n            Building('Stadium', address(0x0), 0, 10, 0, 10, 5, 3)\n        );\n        buildings.push(\n            Building('University', address(0x0), 0, -10, 0, 10, 5, 3)\n        );\n        buildings.push(\n            Building('Shopping Plaza', address(0x0), 10, 0, 0, 5, 25, 5)\n        );\n        buildings.push(\n            Building('Shopping Plaza 2', address(0x0), -10, 0, 0, 5, 25, 5)\n        );\n    }\n\n    function mint(uint256 _id) public payable {\n        uint256 supply = totalSupply;\n        require(supply <= maxSupply, 'Already reached max supply');\n        require(buildings[_id - 1].owner == address(0x0),'Building already has owner');\n        require(msg.value >= 1 ether, 'Land costs 1 ether');\n\n        buildings[_id - 1].owner = msg.sender;\n        totalSupply += 1;\n        _safeMint(msg.sender, _id); // from ERC721, handle all buying of virtual land\n    }\n\n    function transferFrom(address from, address to, uint256 tokenId) public override {\n        require(_isApprovedOrOwner(_msgSender(), tokenId), \"ERC721: transfer caller is not owner nor approved\");\n\n        buildings[tokenId - 1].owner = to;\n        _transfer(from, to, tokenId);\n    }\n\n    function safeTransferFrom(address from, address to, uint256 tokenId, bytes memory _data) public override {\n        require(_isApprovedOrOwner(_msgSender(), tokenId), \"ERC721: transfer caller is not owner nor approved\");\n        \n        buildings[tokenId - 1].owner = to;\n        _safeTransfer(from, to, tokenId, _data);\n    }\n\n    function getBuildings() public view returns(Building[] memory) {\n        return buildings;\n    }\n\n    function getBuilding(uint256 _id) public view returns(Building memory){\n        return buildings[_id - 1];\n    }\n}",
  "sourcePath": "/Users/nicholasnikas/Desktop/metaverse/src/contracts/Land.sol",
  "compiler": {
    "name": "solc",
    "version": "0.8.11+commit.d7f03943.Emscripten.clang"
  },
  "schemaVersion": "3.4.4",
  "updatedAt": "2022-03-30T00:47:50.085Z",
  "networkType": "ethereum",
  "devdoc": {
    "kind": "dev",
    "methods": {
      "approve(address,uint256)": {
        "details": "See {IERC721-approve}."
      },
      "balanceOf(address)": {
        "details": "See {IERC721-balanceOf}."
      },
      "getApproved(uint256)": {
        "details": "See {IERC721-getApproved}."
      },
      "isApprovedForAll(address,address)": {
        "details": "See {IERC721-isApprovedForAll}."
      },
      "name()": {
        "details": "See {IERC721Metadata-name}."
      },
      "ownerOf(uint256)": {
        "details": "See {IERC721-ownerOf}."
      },
      "safeTransferFrom(address,address,uint256)": {
        "details": "See {IERC721-safeTransferFrom}."
      },
      "safeTransferFrom(address,address,uint256,bytes)": {
        "details": "See {IERC721-safeTransferFrom}."
      },
      "setApprovalForAll(address,bool)": {
        "details": "See {IERC721-setApprovalForAll}."
      },
      "supportsInterface(bytes4)": {
        "details": "See {IERC165-supportsInterface}."
      },
      "symbol()": {
        "details": "See {IERC721Metadata-symbol}."
      },
      "tokenURI(uint256)": {
        "details": "See {IERC721Metadata-tokenURI}."
      },
      "transferFrom(address,address,uint256)": {
        "details": "See {IERC721-transferFrom}."
      }
    },
    "version": 1
  },
  "userdoc": {
    "kind": "user",
    "methods": {},
    "version": 1
  }
}